{
  "_format": "hh-sol-artifact-1",
  "contractName": "Feedback",
  "sourceName": "contracts/Feedback.sol",
  "abi": [
    {
      "inputs": [],
      "stateMutability": "nonpayable",
      "type": "constructor"
    },
    {
      "inputs": [
        {
          "internalType": "uint256",
          "name": "",
          "type": "uint256"
        }
      ],
      "name": "feedbacks",
      "outputs": [
        {
          "internalType": "string",
          "name": "",
          "type": "string"
        }
      ],
      "stateMutability": "view",
      "type": "function"
    },
    {
      "inputs": [],
      "name": "owner",
      "outputs": [
        {
          "internalType": "address",
          "name": "",
          "type": "address"
        }
      ],
      "stateMutability": "view",
      "type": "function"
    },
    {
      "inputs": [
        {
          "internalType": "string",
          "name": "_feedback",
          "type": "string"
        }
      ],
      "name": "sendFeedback",
      "outputs": [],
      "stateMutability": "nonpayable",
      "type": "function"
    },
    {
      "inputs": [],
      "name": "viewFeedback",
      "outputs": [
        {
          "internalType": "string[]",
          "name": "",
          "type": "string[]"
        }
      ],
      "stateMutability": "view",
      "type": "function"
    }
  ],
  "bytecode": "0x608060405234801561001057600080fd5b5033600160006101000a81548173ffffffffffffffffffffffffffffffffffffffff021916908373ffffffffffffffffffffffffffffffffffffffff160217905550610b19806100616000396000f3fe608060405234801561001057600080fd5b506004361061004c5760003560e01c8063142f8e48146100515780632bb8b0dc1461006f5780637482230e1461009f5780638da5cb5b146100bb575b600080fd5b6100596100d9565b6040516100669190610480565b60405180910390f35b610089600480360381019061008491906104ec565b610224565b6040516100969190610563565b60405180910390f35b6100b960048036038101906100b491906106ba565b6102d0565b005b6100c3610308565b6040516100d09190610744565b60405180910390f35b60606000808054905067ffffffffffffffff8111156100fb576100fa61058f565b5b60405190808252806020026020018201604052801561012e57816020015b60608152602001906001900390816101195790505b50905060008080549050905060005b8181101561021b57600081815481106101595761015861075f565b5b90600052602060002001805461016e906107bd565b80601f016020809104026020016040519081016040528092919081815260200182805461019a906107bd565b80156101e75780601f106101bc576101008083540402835291602001916101e7565b820191906000526020600020905b8154815290600101906020018083116101ca57829003601f168201915b50505050508382815181106101ff576101fe61075f565b5b6020026020010181905250806102149061081d565b905061013d565b50819250505090565b6000818154811061023457600080fd5b90600052602060002001600091509050805461024f906107bd565b80601f016020809104026020016040519081016040528092919081815260200182805461027b906107bd565b80156102c85780601f1061029d576101008083540402835291602001916102c8565b820191906000526020600020905b8154815290600101906020018083116102ab57829003601f168201915b505050505081565b6000819080600181540180825580915050600190039060005260206000200160009091909190915090816103049190610a11565b5050565b600160009054906101000a900473ffffffffffffffffffffffffffffffffffffffff1681565b600081519050919050565b600082825260208201905092915050565b6000819050602082019050919050565b600081519050919050565b600082825260208201905092915050565b60005b83811015610394578082015181840152602081019050610379565b60008484015250505050565b6000601f19601f8301169050919050565b60006103bc8261035a565b6103c68185610365565b93506103d6818560208601610376565b6103df816103a0565b840191505092915050565b60006103f683836103b1565b905092915050565b6000602082019050919050565b60006104168261032e565b6104208185610339565b9350836020820285016104328561034a565b8060005b8581101561046e578484038952815161044f85826103ea565b945061045a836103fe565b925060208a01995050600181019050610436565b50829750879550505050505092915050565b6000602082019050818103600083015261049a818461040b565b905092915050565b6000604051905090565b600080fd5b600080fd5b6000819050919050565b6104c9816104b6565b81146104d457600080fd5b50565b6000813590506104e6816104c0565b92915050565b600060208284031215610502576105016104ac565b5b6000610510848285016104d7565b91505092915050565b600082825260208201905092915050565b60006105358261035a565b61053f8185610519565b935061054f818560208601610376565b610558816103a0565b840191505092915050565b6000602082019050818103600083015261057d818461052a565b905092915050565b600080fd5b600080fd5b7f4e487b7100000000000000000000000000000000000000000000000000000000600052604160045260246000fd5b6105c7826103a0565b810181811067ffffffffffffffff821117156105e6576105e561058f565b5b80604052505050565b60006105f96104a2565b905061060582826105be565b919050565b600067ffffffffffffffff8211156106255761062461058f565b5b61062e826103a0565b9050602081019050919050565b82818337600083830152505050565b600061065d6106588461060a565b6105ef565b9050828152602081018484840111156106795761067861058a565b5b61068484828561063b565b509392505050565b600082601f8301126106a1576106a0610585565b5b81356106b184826020860161064a565b91505092915050565b6000602082840312156106d0576106cf6104ac565b5b600082013567ffffffffffffffff8111156106ee576106ed6104b1565b5b6106fa8482850161068c565b91505092915050565b600073ffffffffffffffffffffffffffffffffffffffff82169050919050565b600061072e82610703565b9050919050565b61073e81610723565b82525050565b60006020820190506107596000830184610735565b92915050565b7f4e487b7100000000000000000000000000000000000000000000000000000000600052603260045260246000fd5b7f4e487b7100000000000000000000000000000000000000000000000000000000600052602260045260246000fd5b600060028204905060018216806107d557607f821691505b6020821081036107e8576107e761078e565b5b50919050565b7f4e487b7100000000000000000000000000000000000000000000000000000000600052601160045260246000fd5b6000610828826104b6565b91507fffffffffffffffffffffffffffffffffffffffffffffffffffffffffffffffff820361085a576108596107ee565b5b600182019050919050565b60008190508160005260206000209050919050565b60006020601f8301049050919050565b600082821b905092915050565b6000600883026108c77fffffffffffffffffffffffffffffffffffffffffffffffffffffffffffffffff8261088a565b6108d1868361088a565b95508019841693508086168417925050509392505050565b6000819050919050565b600061090e610909610904846104b6565b6108e9565b6104b6565b9050919050565b6000819050919050565b610928836108f3565b61093c61093482610915565b848454610897565b825550505050565b600090565b610951610944565b61095c81848461091f565b505050565b5b8181101561098057610975600082610949565b600181019050610962565b5050565b601f8211156109c55761099681610865565b61099f8461087a565b810160208510156109ae578190505b6109c26109ba8561087a565b830182610961565b50505b505050565b600082821c905092915050565b60006109e8600019846008026109ca565b1980831691505092915050565b6000610a0183836109d7565b9150826002028217905092915050565b610a1a8261035a565b67ffffffffffffffff811115610a3357610a3261058f565b5b610a3d82546107bd565b610a48828285610984565b600060209050601f831160018114610a7b5760008415610a69578287015190505b610a7385826109f5565b865550610adb565b601f198416610a8986610865565b60005b82811015610ab157848901518255600182019150602085019450602081019050610a8c565b86831015610ace5784890151610aca601f8916826109d7565b8355505b6001600288020188555050505b50505050505056fea26469706673582212207e752442754e4f931b08f152d842ba74be5524d2ca4749713cfc08ac6664b5bd64736f6c63430008110033",
  "linkReferences": {},
  "deployedLinkReferences": {}
}